:100000000C945E000C9486000C9486000C94860080
:100010000C9486000C9486000C9486000C947E024E
:100020000C9486000C9486000C9486000C94860038
:100030000C9486000C9486000C9486000C94860028
:100040000C9432030C9486000C9400030C94DA0296
:100050000C9486000C9486000C9486000C94860008
:100060000C9486000C9486000000000024002700F9
:100070002A0000000008000201000003040700003D
:10008000000000000000010204081020408001026E
:1000900004081020010204081020000000002500C0
:1000A00028002B00040404040404040402020202D5
:1000B00002020303030303030200960511241FBE7B
:1000C000CFEFD8E0DEBFCDBF11E0A0E0B1E0E4EEBD
:1000D000FBE002C005900D92A032B107D9F721E0F4
:1000E000A0E2B1E001C01D92AB3DB207E1F710E024
:1000F000CEE5D0E004C02197FE010E94E505CD3594
:10010000D107C9F70E947C030C94F0050C94000001
:10011000CF92DF92EF92FF920F931F93CF93DF93D3
:100120006C017A018B01C0E0D0E0CE15DF0589F0CB
:10013000D8016D918D01D601ED91FC910190F08176
:10014000E02DC6010995892B11F47E0102C021968C
:10015000ECCFC701DF91CF911F910F91FF90EF90EE
:10016000DF90CF900895089580E090E00895FC011D
:10017000538D448D252F30E0842F90E0821B930B0C
:10018000541710F0CF96089501970895FC01918DB2
:10019000828D981761F0828DDF01A80FB11D5D96E9
:1001A0008C91928D9F5F9F73928F90E008958FEF57
:1001B0009FEF0895FC01918D828D981731F0828D0B
:1001C000E80FF11D858D90E008958FEF9FEF089562
:1001D000FC01918D228D892F90E0805C9F4F821BC6
:1001E00091098F73992708958EE391E00E94E800AA
:1001F00021E0892B09F420E0822F0895FC01848DF1
:10020000DF01A80FB11DA35ABF4F2C91848D90E040
:1002100001968F739927848FA689B7892C93A0891B
:10022000B1898C9180648C93938D848D981306C0D2
:100230000288F389E02D80818F7D80830895EF927D
:10024000FF920F931F93CF93DF93EC0181E0888F90
:100250009B8D8C8D981305C0E889F989808185FD77
:1002600024C0F62E0B8D10E00F5F1F4F0F73112768
:10027000E02E8C8DE8120CC00FB607FCFACFE8898F
:10028000F989808185FFF5CFCE010E94FE00F1CF74
:100290008B8DFE01E80FF11DE35AFF4FF0820B8FAB
:1002A000EA89FB898081806207C0EE89FF896083CB
:1002B000E889F98980818064808381E090E0DF9122
:1002C000CF911F910F91FF90EF900895CF93DF93FF
:1002D000EC01888D8823C9F0EA89FB89808185FD3E
:1002E00005C0A889B9898C9186FD0FC00FB607FC9F
:1002F000F5CF808185FFF2CFA889B9898C9185FFE0
:10030000EDCFCE010E94FE00E7CFDF91CF9108959F
:1003100080E090E0892B29F00E94F40081110C9478
:100320000000089590E0FC01EE58FF4F3491FC016D
:10033000EA57FF4F2491FC01EC55FF4FE491EE2367
:1003400009F43BC0332339F1333091F038F43130C4
:10035000A9F0323001F584B58F7D12C0373091F0AD
:100360003830A1F03430B9F4809180008F7D03C023
:10037000809180008F77809380000DC084B58F7747
:1003800084BD09C08091B0008F7703C08091B00018
:100390008F7D8093B000F0E0EE0FFF1FE656FF4F19
:1003A000A591B4918FB7F894EC91611103C0209599
:1003B0002E2301C02E2B2C938FBF08959091000106
:1003C000981324C0E8EBF0E0E4919FEF90930001D4
:1003D000E130B9F098F0E230C9F4909170009D7F5F
:1003E0009093700091E09093B0009091B100987F4D
:1003F00094609093B1001092B30008C010926E0008
:1004000005C090916F009D7F90936F0060E00C9409
:100410009201CF93DF9390E0FC01EA57FF4F2491C4
:10042000FC01EC55FF4F8491882361F190E0880F27
:10043000991FFC01E859FF4FC591D491FC01E65684
:10044000FF4FA591B491611109C09FB7F8948881BD
:10045000209582238883EC912E230BC0623061F4B7
:100460009FB7F8943881822F809583238883EC91FD
:100470002E2B2C939FBF06C08FB7F894E8812E2BAC
:1004800028838FBFDF91CF9108953FB7F894809173
:10049000250190912601A0912701B091280126B550
:1004A000A89B05C02F3F19F00196A11DB11D3FBFAC
:1004B000BA2FA92F982F8827820F911DA11DB11D3A
:1004C000BC01CD0142E0660F771F881F991F4A9536
:1004D000D1F70895009769F0FC0101900020E9F739
:1004E0003197AF01481B590BBC018EE391E00C948E
:1004F000880080E090E008950E94EB051F920F9223
:100500000FB60F9211242F933F934F935F936F93E6
:100510007F938F939F93AF93BF93EF93FF938091BC
:10052000320190913301A0913401B0913501892BB2
:100530008A2B8B2B51F180912901E0912A01F091B6
:100540002B01908189278083809132019091330122
:10055000A0913401B0913501181619061A061B0630
:10056000C4F48091320190913301A0913401B09193
:1005700035010197A109B1098093320190933301AC
:10058000A0933401B093350104C0809100010E9412
:10059000DE01FF91EF91BF91AF919F918F917F917C
:1005A0006F915F914F913F912F910F900FBE0F90E0
:1005B0001F9018951F920F920FB60F9211242F9330
:1005C0003F934F935F936F937F938F939F93AF93DB
:1005D000BF93EF93FF938EE391E00E94FE00FF91A3
:1005E000EF91BF91AF919F918F917F916F915F91AB
:1005F0004F913F912F910F900FBE0F901F90189524
:100600001F920F920FB60F9211242F938F939F93E7
:10061000EF93FF93E0914E01F0914F018081E091C3
:100620005401F091550182FD12C0908180915701D3
:100630008F5F8F7320915801821751F0E09157011D
:10064000F0E0E25CFE4F958F8093570101C08081FE
:10065000FF91EF919F918F912F910F900FBE0F906F
:100660001F9018951F920F920FB60F9211242F937F
:100670003F938F939F93AF93BF938091210190916C
:100680002201A0912301B09124013091200123E0A7
:10069000230F2D3720F40196A11DB11D05C026E8BA
:1006A000230F0296A11DB11D2093200180932101EB
:1006B00090932201A0932301B093240180912501FE
:1006C00090912601A0912701B09128010196A11DCA
:1006D000B11D8093250190932601A0932701B0932B
:1006E0002801BF91AF919F918F913F912F910F90D2
:1006F0000FBE0F901F901895CF93DF93CDB7DEB745
:10070000A5970FB6F894DEBF0FBECDBF789484B521
:10071000826084BD84B5816084BD85B5826085BDFD
:1007200085B5816085BD80916E00816080936E008B
:10073000109281008091810082608093810080917D
:10074000810081608093810080918000816080932E
:1007500080008091B10084608093B1008091B000EE
:1007600081608093B00080917A00846080937A00E9
:1007700080917A00826080937A0080917A00816013
:1007800080937A0080917A00806880937A0010923A
:10079000C10061E08CE00E94090261E08BE00E94F0
:1007A000090261E08AE00E94090260E083E10E94A0
:1007B0000902E0914E01F0914F0182E08083E091C7
:1007C0004A01F0914B011082E0914C01F0914D01F2
:1007D0008FEC808310925601E0915201F091530109
:1007E00086E08083E0915001F09151018081806129
:1007F0008083E0915001F091510180818860808375
:10080000E0915001F0915101808180688083E091F6
:100810005001F091510180818F7D80834AE0442E08
:10082000512C612C712C50E9C52EDD24D394E12C80
:10083000F12C60E9262E60E0362E65E460937C00A2
:1008400080917A00806480937A0080917A0086FD9E
:10085000FCCF009178008091790010E0182B83E1A3
:1008600091E00E946A024801012E000CAA08BB0810
:1008700017FF26C0E0913E01F0913F010190F08109
:10088000E02D6DE28EE391E0099522273327A9013F
:10089000281939094A095B0919A2CE0181965C0120
:1008A000CA01B901A30192010E94C305605DF5016F
:1008B00062935F01211531054105510589F715C086
:1008C000A501940119A2CE0181965C01CA01B9016A
:1008D000A30192010E94C305605DF50162935F016F
:1008E000211531054105510589F7C5010E946A02AC
:1008F0008DE191E00E946A020D3211400CF4C0C0FB
:1009000061E08CE00E94920160E08BE00E94920125
:10091000809100018A3021F4E8EBF0E0149175C079
:100920008F3F09F0B8C08AE080930001E8EBF0E067
:1009300014911F3F09F4AFC0113009F1123009F4CE
:1009400041C0111162C014BC15BC84B5826084BD65
:1009500085B5816085BDEEEAF0E08491E82FF0E096
:10096000EE0FFF1FE656FF4F859194919093310152
:1009700080933001F101849180932F0148C010923F
:1009800080001092810080918100886080938100B6
:1009900080918100816080938100EEEAF0E0849193
:1009A000E82FF0E0EE0FFF1FE656FF4F8591949180
:1009B00090932E0180932D01F101849180932C015D
:1009C00011E025C01092B0001092B1008091B000EB
:1009D00082608093B0008091B10081608093B1000B
:1009E000EEEAF0E08491E82FF0E0EE0FFF1FE6560C
:1009F000FF4F8591949190932B0180932A01F101EF
:100A000084918093290112E002C017FD44C061E087
:100A10008AE00E940902112309F474C0123009F41B
:100A200069C01130D1F480918100887F816080930A
:100A300081008FE39FE19093890080938800C092AA
:100A40003601D0923701E0923801F092390180915D
:100A50006F00826080936F001EC01230E1F48FE35C
:100A60008093B300C0923201D0923301E0923401FE
:100A7000F0923501809170008260809370000BC00D
:100A800060E08CE00E94920161E08BE00E949201A4
:100A90008AE00E94DE010E9445029B01AC0184E6CF
:100AA000882E912CA12CB12C2AA33BA34CA35DA38F
:100AB0000E9445022AA13BA14CA15DA1DC01CB0112
:100AC000821B930BA40BB50B883E9340A105B10587
:100AD00048F091E0891A9108A108B10828513C4FCB
:100AE0004F4F5F4F81149104A104B104E9F60E94B5
:100AF0008801A3CE8091B100887F83608093B1008C
:100B000089EFAECF85B5887F836085BDFCE7F7BDF3
:100B1000C0923A01D0923B01E0923C01F0923D013B
:100B200080916E00826080936E00B5CFEEE3F1E0BD
:100B30001382128288EE93E0A0E0B0E08483958374
:100B4000A683B78385E091E09183808385EC90E074
:100B50009587848784EC90E09787868780EC90E087
:100B6000918B808B81EC90E0938B828B82EC90E078
:100B7000958B848B86EC90E0978B868B118E128EF2
:100B8000138E148E0895A1E21A2EAA1BBB1BFD0121
:100B90000DC0AA1FBB1FEE1FFF1FA217B307E4075C
:100BA000F50720F0A21BB30BE40BF50B661F771FB4
:100BB000881F991F1A9469F7609570958095909594
:100BC0009B01AC01BD01CF010895EE0FFF1F059001
:100BD000F491E02D099481E090E0F8940C94F005F4
:040BE000F894FFCFB7
:100BE400FF000000001F018800B7006601E800C68E
:100BF40000DA002050696E2041303A20000D0A00CE
:107E0000112484B714BE81FFF0D085E080938100F7
:107E100082E08093C00088E18093C10086E0809377
:107E2000C20080E18093C4008EE0C9D0259A86E02C
:107E300020E33CEF91E0309385002093840096BBD3
:107E4000B09BFECF1D9AA8958150A9F7CC24DD24C4
:107E500088248394B5E0AB2EA1E19A2EF3E0BF2EE7
:107E6000A2D0813461F49FD0082FAFD0023811F036
:107E7000013811F484E001C083E08DD089C08234E0
:107E800011F484E103C0853419F485E0A6D080C0E4
:107E9000853579F488D0E82EFF2485D0082F10E0AE
:107EA000102F00270E291F29000F111F8ED06801E7
:107EB0006FC0863521F484E090D080E0DECF843638
:107EC00009F040C070D06FD0082F6DD080E0C81688
:107ED00080E7D80618F4F601B7BEE895C0E0D1E017
:107EE00062D089930C17E1F7F0E0CF16F0E7DF06D8
:107EF00018F0F601B7BEE89568D007B600FCFDCFD4
:107F0000A601A0E0B1E02C9130E011968C91119780
:107F100090E0982F8827822B932B1296FA010C0160
:107F200087BEE89511244E5F5F4FF1E0A038BF0790
:107F300051F7F601A7BEE89507B600FCFDCF97BE46
:107F4000E89526C08437B1F42ED02DD0F82E2BD052
:107F50003CD0F601EF2C8F010F5F1F4F84911BD097
:107F6000EA94F801C1F70894C11CD11CFA94CF0C13
:107F7000D11C0EC0853739F428D08EE10CD085E9AC
:107F80000AD08FE07ACF813511F488E018D01DD067
:107F900080E101D065CF982F8091C00085FFFCCF94
:107FA0009093C60008958091C00087FFFCCF809118
:107FB000C00084FD01C0A8958091C6000895E0E648
:107FC000F0E098E1908380830895EDDF803219F02E
:107FD00088E0F5DFFFCF84E1DECF1F93182FE3DFCA
:107FE0001150E9F7F2DF1F91089580E0E8DFEE27F6
:047FF000FF270994CA
:027FFE00040479
:0400000300007E007B
:00000001FF
